:040000000C94150641
:080008000C94820D0C94220DF2
:04004C000C94D90C2B
:14005400EF0B650BAA0A9E0964092A091A090A09F908E7080D
:140068008B0CD80C0000000000000000002F000000000700D3
:14007C00070000147F147F1400242A7F2A1200626408132322
:1400900000364955225000000503000000001C22410000008F
:1400A40041221C000014083E08140008083E0808000000A055
:1400B8006000000808080808000060600000002010080402AE
:1400CC00003E5149453E0000427F4000004261514946002120
:1400E00041454B31001814127F10002745454539003C4A493F
:1400F400493000017109050300364949493600064949291ED6
:14010800000036360000000056360000000814224100001458
:14011C001414141400004122140800020151090600324959C9
:14013000513E007C1211127C007F49494936003E414141224C
:14014400007F4141221C007F49494941007F09090901003EF4
:140158004149497A007F0808087F0000417F4100002040418E
:14016C003F01007F08142241007F40404040007F020C027FB4
:14018000007F0408107F003E4141413E007F09090906003E34
:140194004151215E007F091929460046494949310001017F63
:1401A8000101003F4040403F001F2040201F003F4038403F0F
:1401BC00006314081463000708700807006151494543000028
:1401D0007F41410000552A552A55000041417F0000040201BF
:1401E400020400404040404000000102040000205454547826
:1401F800007F4844443800384444442000384444487F003889
:14020C005454541800087E0901020018A4A4A47C007F08042D
:1402200004780000447D4000004080847D00007F1028440091
:140234000000417F4000007C04180478007C08040478003866
:140248004444443800FC242424180018242418FC007C080422
:14025C00040800485454542000043F444020003C4040207CDF
:14027000001C2040201C003C4030403C004428102844001C96
:14028400A0A0A07C004464544C44141414141414BBB60A3259
:14029800C2321E0807E404140C000403000308040300030409
:1402AC000800D3AD11F200FE824100FE0202FE0008070809D2
:1402C0000808080F08090900020000000000000000002F00B8
:1402D4000000000700070000147F147F1400242A7F2A1200C5
:1402E800231308646200364955225000000503000000001C94
:1402FC00224100000041221C000014083E08140008083E0840
:1403100008000000A0600000080808080800006060000000E9
:140324002010080402003E5149453E0000427F400000426188
:14033800514946002141454B31001814127F100027454545EB
:14034C0039003C4A4949300001710905030036494949360052
:14036000064949291E00003636000000005636000000081496
:140374002241000014141414140000412214080002015109D2
:140388000600324959513E007C1211127C007F49494936003B
:14039C003E41414122007F4141221C007F49494941007F09C8
:1403B000090901003E4149497A007F0808087F0000417F4184
:1403C40000002040413F01007F08142241007F4040404000C7
:1403D8007F020C027F007F0408107F003E4141413E007F0922
:1403EC00090906003E4151215E007F09192946004649494965
:14040000310001017F0101003F4040403F001F2040201F0038
:140414003F4038403F00631408146300070870080700615168
:1404280049454300007F414100AA55AA55AA55000041417FF0
:14043C00000004020102040040404040400000030500000057
:140450002054545478007F48444438003844444420003844DD
:1404640044487F00385454541800087E0901020018A4A4A497
:140478007C007F080404780000447D4000004080847D00002B
:14048C007F102844000000417F4000007C04180478007C08C9
:1404A00004047800384444443800FC24242418001824241894
:1404B400FC007C0804040800485454542000043F4440200059
:1404C8003C4040207C001C2040201C003C4030403C0044287C
:1404DC00102844001CA0A0A07C004464544C440000107C827E
:1404F00000000000FF00000000827C10000000060909060CC1
:14050400102D0D000000808080808080000000000001030392
:140518000303030301000000000000000000000000000000C2
:14052C0000000000C0C0000000000000000286868686868615
:14054000020000000081C3C3C3C3C3C381000000FC7A06068F
:14055400060606067AFC00007EBCC0C0C0C0C0C0BC7E000011
:14056800000000000000000078FC000000000000000000000B
:14057C003C7E000000028686868686867AFC00007EBDC3C354
:14059000C3C3C3C38100000000028686868686867AFC00002E
:1405A4000081C3C3C3C3C3C3BD7E0000FC7880808080808081
:1405B80078FC000000010303030303033D7E0000FC7A86866B
:1405CC0086868686020000000081C3C3C3C3C3C3BD7E0000B3
:1405E000FC7A868686868686020000007EBDC3C3C3C3C3C39E
:1405F400BD7E000000020606060606067AFC0000000000001C
:14060800000000003C7E0000FC7A8686868686867AFC000014
:14061C007EBDC3C3C3C3C3C3BD7E0000FC7A86868686868628
:140630007AFC00000081C3C3C3C3C3C3BD7E000E182D0D0092
:140644000000000000000000000000000000001038383838B2
:1406580038383838100000000000000000000000000000009E
:14066C0000000000000000000000000000000000000000007A
:14068000000000000000000000000000000040E0E040000026
:14069400000000000002060E0E0E0E0E0E06020000000010DE
:1406A8003838383838383838100000000080C0E0E0E0E0E0CE
:1406BC00E0C080000000FCFAF60E0E0E0E0E0EF6FAFC0000DE
:1406D000EFC78300000000000083C7EF00007FBFDFE0E0E0E7
:1406E400E0E0E0DFBF7F0000000000000000000000F0F8FC61
:1406F800000000000000000000000083C7EF000000000000B5
:14070C0000000000001F3F7F00000002060E0E0E0E0E0EF6AA
:14072000FAFC0000E0D0B83838383838383B170F00007FBF78
:14073400DFE0E0E0E0E0E0C0800000000002060E0E0E0E0E04
:140748000EF6FAFC0000001038383838383838BBD7EF00008A
:14075C000080C0E0E0E0E0E0E0DFBF7F0000FCF8F000000008
:14077000000000F0F8FC00000F173B383838383838BBD7EF5F
:1407840000000000000000000000001F3F7F0000FCFAF60E8A
:140798000E0E0E0E0E06020000000F173B383838383838B896
:1407AC00D0E000000080C0E0E0E0E0E0E0DFBF7F0000FCFAF6
:1407C000F60E0E0E0E0E0E0602000000EFD7BB38383838383A
:1407D40038B8D0E000007FBFDFE0E0E0E0E0E0DFBF7F0000F7
:1407E8000002060E0E0E0E0E0EF6FAFC0000000000000000B5
:1407FC0000000083C7EF00000000000000000000001F3F7FD3
:140810000000FCFAF60E0E0E0E0E0EF6FAFC0000EFD7BB38EF
:140824003838383838BBD7EF00007FBFDFE0E0E0E0E0E0DFEB
:14083800BF7F0000FCFAF60E0E0E0E0E0EF6FAFC00000F171C
:14084C003B383838383838BBD7EF00000080C0E0E0E0E0E0EC
:14086000E0DFBF7F00C0F9A4B0999282F88090FF7FC600057C
:14087400003C026A00D30800002F02050020026A00AF080074
:14088800000000050011026A000F0900000000050002026A4F
:14089C00001B09000000000500F301680000000000000001C2
:1408B00000E4016A00BB087308D7010200C80166000000AFEF
:1408C40008BB010200AC0164000000AF08000005009D01628D
:1408D800000000730891010500820160000000730800000597
:1408EC000073015E00000073080000050064015C0000007372
:14090000080000050055015A0000007308000001004601580B
:140914000000007308390102002A015600000073081C0102FD
:14092800000D015400000073080000060040003C000A000949
:14093C000037000000E00146009A01000000000000000000AE
:140950000000000101010101010101007308000000454E5429
:14096400455200204B455920352000204B45592036200020CB
:140978004B455920312000204B455920342000204B4559206B
:14098C00322000204B45592033200057656C636F6D6521009C
:1409A00045534320203E204B455920352000454E5445523EB0
:1409B400204B45592036200052494748543E204B455920319A
:1409C80020004C454654203E204B455920342000444F574EBD
:1409DC00203E204B45592032200055502020203E204B4559E2
:1409F00020332000322052657365742053797374656D002066
:140A040053455454494E47204D454E55003120566F6C756D07
:140A1800652020202020200020202054454D50204D454E55BA
:140A2C0000312053686F772054656D702020200035204375A1
:140A400073746F6D697A652020200034205269676874205372
:140A540068696674200033204C656674205368696674202087
:140A68000032204C696768744F464620416C6C002020204C70
:140A7C004544204D454E550031204C69676874656E202041EB
:140A90006C6C00322052657365742020202020202000202005
:140AA4002053544F50574154434800312053746172742F5083
:140AB80061757365200020202054494D45204D454E55003147
:140ACC002053746F70776174636820202000352041626F75FD
:140AE000742053797374656D00342053657474696E67732024
:140AF40020202000332054656D70657274757265202000329C
:140B080020436C6F636B20202020202020002020204D4149B6
:140B1C004E204D454E550031204C454420436F6E74726F6CFB
:140B3000200023446174653A323031372F30352300232041B1
:140B44007574686F723A435A48202300233D3D3D3D3D3D3D3B
:140B58003D3D3D3D3D2300434F4D504C4554454421004E4FDA
:140B6C000059455300436F6E6669726D3F00205245534554D4
:140B80002053595354454D002020202020200053415645006D
:140B940053696C656E7400536F756E64002053746174757331
:140BA8003A00564F4C554D452053455454494E470045525200
:140BBC004F520020202020200020494E4954204552524F52E6
:140BD0002121004B45593520746F204553430054656D703AE3
:140BE40020002043555252454E542054454D50004E004600B0
:140BF8004F00455343003D3D3D3D3D3D3D3D3D3D3D3D3D3D69
:140C0C000020435553544F4D495A45204C45440053484F57BB
:090C2000494E472E2E2E00000063
:140C2A00CFE5D4E0CDBFDEBFC051D0400AEA08830024E2E49B
:140C3E00F3E013E0EC34F10711F00192FBCF0083E7E4F9E03F
:140C5200A0E6B0E01CE000E00BBFE932F10721F0C89531968A
:140C66000D92F9CF0E94170FFFCF80E58DB922242EB8089509
:140C7A008BB38F788BBB8AB380678ABB88B38F7488BB87B3B7
:140C8E00806B87BBEEDF46C004C00000000000000000180175
:140CA200015010402220B9F73320A9F70895DC98222311F45D
:140CB600DE9801C0DE9A0FB9779BFECFDC9A08954A935A93F7
:140CCA0022270CE0F0DF222700E8EDDF4427552705C021E068
:140CDE000027E7DF4F5F5F4F483FE1E05E07B8F3599149919D
:140CF20008954A935A9322270CE0D9DF222700E8D6DF442749
:140D0600552705C021E00FEFD0DF4F5F5F4F483FE1E05E07E1
:140D1A00B8F3599149910895DD980AE010E0B6DFDD9ADC98EA
:140D2E000AE010E0B1DF222701E2BBDF222708ECB8DF222764
:140D420007E0B5DF222703E1B2DF222700E2AFDF22270CE076
:140D5600ACDFB6DFDC9A08954A936A93622F402F2227062FFE
:140D6A000064A1DF2227042F00689DDF6991499108954A93E3
:140D7E006A93602F6052442710C021E006E0162F01031001A7
:140D92008CE690E0280E391EE42FFF27E20DF31D049185DFAD
:140DA6004395463070F36991499108954A936A93602F6052FC
:140DBA00442711C021E006E0162F010310018CE690E0280E90
:140DCE00391EE42FFF27E20DF31D0491009569DF43954630C2
:140DE20068F36991499108950E94AC12E22EC02EA8844A85D8
:140DF6005B852E2D0C2DB0DFAA2081F005C0FA010081D4DFB7
:140E0A004F5F5F4FFA0120802220B9F709C0FA010081AFDF18
:140E1E004F5F5F4FFA0120802220B9F70C9496120E945D127E
:140E32000E94AA12422FEE8468897989242F0A858DDFAA245C
:140E460080C00AE11A2D0103200184E992E0F201E80FF91F20
:140E5A002490FB013080231409F070C085E992E0F201E80FFA
:140E6E00F91F2490FB013180231409F065C0EE2009F432C0A5
:140E8200CC2411C021E00AE11A2D0103100186E992E0280E3C
:140E9600391EEC2DFF27E20DF31D0491009505DFC3948C2D95
:140EAA008C3060F3242F2F5F0A8554DF8CE0C82E11C021E04E
:140EBE000AE11A2D0103100186E992E0280E391EEC2DFF272C
:140ED200E20DF31D04910095EADEC3948C2D883160F337C008
:140EE600CC2410C021E00AE11A2D0103100186E992E0280ED9
:140EFA00391EEC2DFF27E20DF31D0491D4DEC3948C2D8C303C
:140F0E0068F3242F2F5F0A8523DF8CE0C82E10C021E00AE1E4
:140F22001A2D0103100186E992E0280E391EEC2DFF27E20DC3
:140F3600F31D0491BADEC3948C2D883168F307C0A394E8EC74
:140F4A00F2E02490A21408F47ACF0E949F12249608950E94C6
:140F5E00D712C22E602F2497AC844E855F850BC05B834A83FF
:140F7200A8822C2D062F5ADF645F4F5F5F4F4F5F5F4FFA0104
:140F86002080222089F724960C94E012DB9AD3988FEF85BB0B
:140F9A0084BB88E082BB222421BA0895222423BE8AE182BFCE
:140FAE0086EE8CBF0895222425BC22BC80E784BD80E983BD7D
:140FC2008EE085BD0895F894E3DFECDFF2DF88E085BF80E8D0
:140FD6008BBF82E889BF7894089582B3806F82BB81B3806FDE
:140FEA0081BB88B38C7F88BB87B3836087BBD898D09A089558
:140FFE00AA92BA92580128EE33E085010E946412109344034D
:141012000093430328EE33E085010E94621224E630E00E9470
:141026006412109346030093450324E630E085010E946212C3
:14103A002AE030E00E94641210934803009347032AE030E08B
:14104E0085010E94621210934A0300934903B990A990089504
:14106200AA924A93A02E44270EC017E0141B01E00E94F212AD
:141076002A2C202211F0D89A01C0D898C198C19A4395483026
:14108A0080F3C098C09A4991A9900895AA924A93A22E402F25
:14109E0082B3806F82BBAA20A9F0413099F483E493E0E42F8F
:1410B200FF27EE0FFF1FE80FF91F2080318085E698E0F101B4
:1410C600E80FF91F04910F77C9DF11C083E493E0E42FFF2760
:1410DA00EE0FFF1FE80FF91F2080318085E698E0F101E80FBB
:1410EE00F91F0491B7DF17E0141B01E00E94F212202E2094FC
:1411020032B2322032BA4991A9900895809167009091680006
:14111600019690936800809367008A3FE0E09E0731F4209026
:14112A00660020942092660029C08091670090916800843FD2
:14113E00E1E09E0708F12224332430926800209267002090AE
:141152006600209420926600809169008F5F282E209269007E
:141166008C3370F022242092690080916A008F5F282E209284
:14117A006A008C3318F0222420926A0020906A002220A1F4DD
:14118E002AE030E00091670010916800000F111F0E946412DB
:1411A20018011091690004E601038001020D131D25DF0BC099
:1411B60010916A0004E601038001209069003324020D131DFC
:1411CA0019DF089520906B00222049F481E080936B0082B3CE
:1411DE008F7082BB8BE083BF04C0222420926B0023BE08956F
:1411F2002224332430926800209267002092690020926A00D2
:1412060082B3806F82BB20926B0023BE0895222425BA00278C
:14121A0009C08CE690E0E02FFF27E80FF91F22242082039551
:14122E000830A8F308958FEF85BB002709C08CE690E0E02F9D
:14124200FF27E80FF91F81E0808303950830A8F308954A931A
:1412560024970E94630685E393E09B838A832224288222E0C6
:14126A0002E10E94F50644270BC001E0142F0E94F212202EA2
:14127E00209425BA04EF11E032D34395483098F38FEF85BB47
:14129200442714C08CE690E0E42FFF27E80FF91F20802220FD
:1412A60051F417E0141B01E00E94F212202E209435B2322007
:1412BA0035BA4395483050F32496499108954A9324970E9433
:1412CE00630685E393E09B838A832224288222E002E10E9426
:1412E200F50647E00BC001E0142F0E94F212202E209425BA60
:1412F60004EF11E0F8D24A954F3F99F78FEF85BB442714C03C
:14130A008CE690E0E42FFF27E80FF91F2080222051F417E087
:14131E00141B01E00E94F212202E209435B2322035BA439503
:14133200483050F32496499108950E94D712249744270E9468
:141346006306D4C020906100222009F4CFC02224209261005E
:14135A0086E293E09B838A832882222700270E94F50687E15A
:14136E0093E09B838A832224288221E000270E94F50683E1B4
:1413820093E09B838A832224288225E00CE30E94F5060E9496
:141396007110A02E6A2D77276130E0E07E0709F453C0623047
:1413AA00E0E07E0709F436C06330E0E07E07E9F06430E0E0F2
:1413BE007E0709F43EC06530E0E07E0709F046C083E193E0EB
:1413D2009B838A8381E0888325E00CE30E94F506DB980FE07D
:1413E60010E081D2DB9A04EF11E07DD280C08CE690E0E42FD3
:1413FA00FF27E80FF91F2224208217E0141B01E00E94F21215
:14140E00202E209435B2322035BA0E9463061EC08CE690E0D5
:14142200E42FFF27E80FF91F81E0808317E0141B01E00E9461
:14143600F21225B2202A25BA0DC0842F8150482F483040F02E
:14144A0047E006C0642F6F5F462F483008F0442763E047C0A6
:14145E0006E0162F0103A02C862F8350242E281A21F481E0ED
:1414720090E06C0102C0CC24DD2489E690E0E62FFF27E80FC5
:14148600F91F20802220E1F081E193E09B838A83C88222E03B
:14149A000A2D0E94F5068FE093E09B838A83C88223E00A2DD9
:1414AE000E94F5068FE093E09B838A83C88224E00A2D0E9459
:1414C200F50612C081E193E09B838A83C88222E00A2D0E9424
:1414D600F5068DE093E09B838A83C88223E00A2D0E94F506DB
:1414EA0063956B3008F4B6CF2BCF24960C94E01224970E9437
:1414FE0063068FEF92E09B838A8322242882222700270E9454
:14151200F50687E193E09B838A832224288221E000270E940A
:14152600F50688EF92E09B838A832224288223E002E10E942A
:14153A00F5068CEE92E09B838A832224288225E00CE00E9408
:14154E00F50624960895AA924A932997CFDF0E94DF1100FF1F
:141562004CC08EED92E09B838A8381E0888323E000270E9419
:14157600F50608E813E1B7D151C0209064002220A1F12224BB
:14158A00209264008E010C5F1F4F0E94F01100FD20C08E01C0
:14159E000C5F1F4F0E941312A02E9E012A5F3F4F0E9427123A
:1415B20088ED92E09B838A832224288223E000E30E94F506A0
:1415C600CE0106969B838A832224288223E006E30E94F50602
:1415DA000AC082ED92E09B838A8381E0888323E000E30E9433
:1415EE00F5060E947110402F053009F401C0C1CF83E193E002
:141602009B838A8381E0888325E00CE30E94F506DB980FE04A
:1416160010E069D1DB9A04EF11E065D129964991A990089598
:14162A0024970E94630683EC92E09B838A83222428822227A1
:14163E0000270E94F50687E193E09B838A832224288221E0DD
:1416520000270E94F5068AEB92E09B838A832224288223E0BB
:1416660000270E94F50620907400222059F084EB92E09B83FE
:14167A008A832224288223E000E30E94F5060AC08DEA92E029
:14168E009B838A832224288223E000E30E94F50688EA92E0C6
:1416A2009B838A832224288225E006E00E94F50683E193E0BA
:1416B6009B838A832224288225E00CE30E94F506249608951D
:1416CA000E94BF122497ACDF409174007EC00E947110602F1E
:1416DE0077276230E0E07E0779F16330E0E07E0759F0653063
:1416F200E0E07E0709F45AC06630E0E07E0709F43AC067C08F
:14170600442309F064C081EA92E09B838A832224288223E050
:14171A0000E30E94F50684EB92E09B838A8381E0888323E0C0
:14172E0000E30E94F50641E0D39ADB9802E310E0D6D0DB9A36
:14174200D39847C0442309F444C081EA92E09B838A8322246B
:14175600288223E000E30E94F5068DEA92E09B838A8381E0DD
:14176A00888323E000E30E94F50644272EC0409374004423D6
:14177E0039F0D39ADB980FE010E0B1D0DB9A01C0D39888EADB
:1417920092E09B838A8381E0888325E006E00E94F50604EFBF
:1417A60011E0A1D03FDF13C083E193E09B838A8381E088836E
:1417BA0025E00CE30E94F506DB980FE010E091D0DB9A04EF6F
:1417CE0011E08DD001C081CF24960C94C41208954A935A9311
:1417E200259722242C820E94630683E992E09B838A832224E9
:1417F6002882222700270E94F50687E193E09B838A832224DC
:14180A00288221E000270E94F5068AE892E09B838A83222406
:14181E00288223E002E10E94F50686E892E09B838A83222438
:14183200288225E00CE00E94F50683E892E09B838A8322241C
:14184600288225E00CE30E94F50648C020906100222009F4FB
:14185A0043C02224209261000E947110402F55274530E0E0DB
:14186E005E0751F14630E0E05E0709F033C0F89481E090E0DB
:14188200998388839E012C5F3F4F002711270E943113789422
:1418960088E792E09B838A8381E0888323E00CE00E94F5063A
:1418AA0086E892E09B838A8381E0888325E00CE00E94F50625
:1418BE0000ED17E014D00FC083E892E09B838A8381E088830B
:1418D20025E00CE30E94F50604EF11E006D001C0B7CF2596B5
:1418E6005991499108954A935A9308C0442755274F5F5F4FB8
:1418FA004637E1E05E07D4F3180101501040222099F7332091
:14190E0089F759914991089524970E94630689E692E09B831F
:141922008A832224288221E000270E94F5068AE592E09B83F0
:141936008A832224288222E000270E94F5068BE492E09B83DB
:14194A008A832224288223E000270E94F50689E692E09B83C6
:14195E008A832224288224E000270E94F5068CEE92E09B83A6
:141972008A832224288225E00CE00E94F5060E94711005307E
:14198600E1F783E193E09B838A8381E0888325E00CE30E9471
:14199A00F506DB980FE010E0A4DFDB9A04EF11E0A0DF2496D7
:1419AE00089508950A921A922A923A924A925A926A927A924B
:1419C2008A929A920A931A932A933A938A939A93AA93BA9321
:1419D600EA93FA930FB60A9297DB8BEB98E02090750030904D
:1419EA0076002816390691F42090670030906800222019F4E3
:1419FE00332009F4DB9880916700909168008431E0E09E07F7
:141A120009F4DB9A09900FBEF991E991B991A991999189911C
:141A26003991299119910991999089907990699059904990DE
:141A3A00399029901990099018950A921A922A923A924A927B
:141A4E005A926A927A928A929A920A931A932A933A938A9357
:141A62009A93AA93BA93EA93FA930FB60A924A935A93809173
:141A760060008F5F282E209260008230A0F02224209260000C
:141A8A0081E080936100809163008F5F282E209263008436EC
:141A9E0030F022242092630081E08093640082B3807F803FEE
:141AB20079F02091660000916500ECDA409165004F5F40932D
:141AC6006500443018F02224209265005991499109900FBEA4
:141ADA00F991E991B991A99199918991399129911991099164
:141AEE0099908990799069905990499039902990199009901A
:141B02001895189560DA0E9429100E943D0667CA24978FEF11
:141B160090E09B838A8322242882222706E00E94F50681EFF4
:141B2A0090E09B838A832224288221E006E00E94F50683EE27
:141B3E0090E09B838A832224288222E006E00E94F50685ED11
:141B520090E09B838A832224288223E006E00E94F50687ECFB
:141B660090E09B838A832224288224E006E00E94F50689EBE5
:141B7A0090E09B838A832224288225E006E00E94F50624968A
:141B8E0008950E94AA122797F89481E090E0998388839E0167
:141BA2002C5F3F4F002711270E940E1378948C81813071F4C5
:141BB60080EB90E09B838A832224288222E002E10E94F506A3
:141BCA0008EB1BE08EDEA8C000240E820D82AA24CC24EE2432
:141BDE00442798DF75C020906100222009F470C02224209264
:141BF20061000E947110602F77276130E0E07E0709F43CC05F
:141C06006230E0E07E07F1F06330E0E07E0771F06430E0E085
:141C1A007E0719F16530E0E07E0709F446C06630E0E07E076F
:141C2E00A1F14EC041E088EA90E09B838A8381E0888322271F
:141C42000AE20E94F50642C0EE24E39480EA90E09B838A8375
:141C560081E0888321E00AE20E94F50635C0CC24C39488E9D7
:141C6A0090E09B838A8381E0888322E00AE20E94F50628C0EC
:141C7E00AA24A39480E990E09B838A8381E0888323E00AE2EE
:141C92000E94F5061BC0002403940D8288E890E09B838A8371
:141CA60081E0888324E00AE20E94F5060DC0002403940E8219
:141CBA0080E890E09B838A8381E0888325E00AE20E94F50619
:141CCE00242E2E202C202A200D8020200E80202009F481CFE4
:141CE20081E08C83F8949927998388839E012C5F3F4F00272C
:141CF60011270E943113789408EE13E0F4DD0E94630680EB80
:141D0A0090E09B838A832224288222E002E10E94F50608EBC5
:141D1E001BE0E5DD27960C949F124A936A9324974427662759
:141D32000E946306E0917500F09176003A96259034903B82AF
:141D46002A8222242882222700270E94F50620907800209206
:141D5A007900E0917500F09176002590349020924203822D00
:141D6E00843010F064E002C06091420341E038C02090770031
:141D8200309079003214B1F4132D0CE00103F00120907500E3
:141D960030907600E20DF31D3296259034903B822A8281E0F9
:141DAA008883242F00270E94F50616C0109179000CE0010323
:141DBE00F0012090750030907600E20DF31D32962590349085
:141DD2003B822A8222242882242F00270E94F5068091790003
:141DE6008F5F809379004395262E3324442E55242414350490
:141DFA000CF0C0CF8AE790E09B838A832224288225E002E067
:141E0E000E94F50683E193E09B838A832224288225E00CE33D
:141E22000E94F5062496699149910895249761E0442768DE37
:141E3600ACDE77DF08C120906100222009F403C122242092E3
:141E4A006100442761E00E947110A02EBB24AA2011F4BB20FD
:141E5E00F9F0C5018130E0E09E0709F4E6C08230E0E09E07F1
:141E720009F43AC08330E0E09E0791F08430E0E09E0709F4B6
:141E8600D8C08530E0E09E0709F4AAC08630E0E09E0709F417
:141E9A0045C0CDC06627CBC0809177008150809377002090F7
:141EAE007800821520F4822D8150809378002090420330903D
:141EC2007700321478F0822D81508093770084E0821528F4C6
:141ED600822D84508093780003C022242092780041E0A7C02F
:141EEA00809177008F5F80937700809178008C5F2090770049
:141EFE00281628F0809178008F5F80937800209042033090C3
:141F12007700321428F02224209277002092780041E089C0E3
:141F26008AE790E09B838A8381E0888325E002E00E94F506AB
:141F3A0004EF11E0D6DC109177000CE00103F00120907500DF
:141F4E0030907600E20DF31D3496259034908AE690E02816E9
:141F62003906B9F0DB9809E110E0BFDCDB9A109177000CE022
:141F76000103F0012090750030907600E20DF31D34960590A9
:141F8A001490F0010E94E91252C0109177000CE00103F00106
:141F9E002090750030907600E20DF31D36962590349022204E
:141FB20019F4332009F43FC00103F00120907500309076006F
:141FC600E20DF31D369625903490309276002092750022241E
:141FDA00209277002092780041E029C0E0917500F0917600B9
:141FEE00389625903490222011F4332089F0E0917500F0911E
:142002007600389625903490309276002092750022242092B6
:1420160077002092780041E083E193E09B838A8381E0888386
:14202A0025E00CE30E94F50604EF11E05ADC662309F075DE22
:14203E00442329F0DB980FE010E051DCDB9AF7CE24960895FE
:14205200DF98D79887B1876487B986B1856886B90895369A61
:14206600349BFECF349A04B1112725B03324322C2224022914
:14207A00132908950E94B512F0DF58018FE790E080179107D3
:14208E0010F041E024C08CE491E08A159B0510F042E01DC01A
:1420A2008CEC91E08A159B0510F044E016C084E292E08A1591
:1420B6009B0510F043E00FC084E692E08A159B0510F046E043
:1420CA0008C08CEB92E08A159B0510F045E001C04427042F8E
:1420DE000C94BA120E94C912442760914003772760306707CA
:1420F20071F06130E0E07E07A1F06230E0E07E0701F16330B6
:14210600E0E07E0709F480C0B8C0B6DF00934B03002309F435
:14211A00B2C081E080934003AEC0ACDF20904B03201639F42E
:14212E0082E080934003222420924103A2C02224209240030C
:142142009EC09CDFA02E002359F560914B0377276130E0E043
:142156007E07A9F06230E0E07E0799F06330E0E07E0789F0A6
:14216A006430E0E07E0779F06530E0E07E0769F06630E0E096
:14217E007E0759F00BC041E009C042E007C043E005C044E0D5
:1421920003C045E001C046E02224209240036FC060914103CB
:1421A6006F5F60934103643608F467C083E080934003222464
:1421BA002092410360914B0377276130E0E07E07A9F062303D
:1421CE00E0E07E0799F06330E0E07E0789F06430E0E07E0705
:1421E20079F06530E0E07E0769F06630E0E07E0759F045C024
:1421F60041E043C042E041C043E03FC044E03DC045E03BC02B
:14220A0046E039C037DFA02E002321F422242092400331C059
:14221E00609141036F5F60934103653050F122242092410360
:1422320060914B0377276130E0E07E07A9F06230E0E07E0775
:1422460099F06330E0E07E0789F06430E0E07E0779F06530D3
:14225A00E0E07E0769F06630E0E07E0759F00BC041E009C0F9
:14226E0042E007C043E005C044E003C045E001C046E0042F65
:142282000C94D01204C0000000000000000018010150104048
:142296002220B9F73320A9F708954A935A9308C04427552739
:1422AA004F5F5F4F4637E1E05E07D4F318010150104022205E
:1422BE0099F7332089F75991499108954A93D29ADA9AEFE3B9
:1422D200F9E005911491D6DFDA98E1E4F9E005911491D0DF35
:1422E600DA9AD298E3E4F9E005911491C9DF49B34470E5E40A
:1422FA00F9E005911491C2DFD29ADA9A042F49910895AA9255
:14230E004A93A02E442725C001E0142F0E94F2122A2C20225E
:1423220079F0D29ADA98E3E3F9E005911491AADFD298DA9A1F
:14233600E5E3F9E005911491A3DF0EC0D29ADA98E7E3F9E0E6
:14234A00059114919BDFD298DA9AE9E3F9E00591149194DF99
:14235E004395483008F4D8CF4991A99008954A93D29ADA980D
:14237200E3E3F9E00591149185DFD298DA9AEBE3F9E00591FE
:1423860014917EDF49B34470EDE3F9E00591149177DF042F24
:14239A00499108954A936A93662706C04695E1DF002309F0D4
:1423AE00406863956830C0F3042F69914991089585DF002305
:1423C20011F001E00BC00CECA0DF0EE49EDF00279CDF0027AB
:1423D6009ADF0FE198DF002708950E94B512A80171DF0023CA
:1423EA0011F001E019C00CEC8CDF04E48ADF04E610E051DF66
:1423FE0065DF002311F001E00DC00CEC80DF0EEB7EDFC6DF63
:14241200A02EFA01A082C2DFA02EFA01A18200270C94BA12AB
:14242600AA92F801808182958F708083CF010196FC018081EE
:14243A008F7082958083F8012080A180A20C0A2DA990089500
:14244E000E94BF12A901602F6030B0F014E6062F0E947E123D
:142462001AE00E948012802F805DFA0180831AE0062F0E94DD
:142476007E12802F805DFA01818380E2828318C0609563950B
:14248A008DE2FA01808314E6062F0E947E121AE00E94801242
:14249E00802F805DFA0181831AE0062F0E947E12802F805DB2
:1424B200FA0182830C94C4123A932A931A930A930895689433
:1424C60001C0E894EA92FA928A93EE24FF2480E1000F111FCB
:1424DA00EE1CFF1CE216F30618F0E21AF30A03958A95A1F788
:1424EE0016F40E2D1F2D8991F990E9900895689401C0E89457
:142502002A93FA92EA92FF24EE2420E1000FFF1CEE1CE1169F
:1425160010F0E11A03952A95B9F70EF40E2DE990F9902991B6
:14252A000895A990B990C990D990E990F99049915991089559
:14253E00A990B990C990D990E990F99049915991699179917B
:1425520008957A936A935A934A93FA92EA92DA92CA92BA92E8
:14256600AA9208955A934A93BA92AA920895A990B99049913D
:14257A00599108957A936A935A934A93089549915991699197
:14258E00799108957A936A935A934A93BA92AA920895A99060
:1425A200B990499159916991799108957A936A935A934A93A3
:1425B600DA92CA92BA92AA920895A990B990C990D990499106
:1425CA0059916991799108950A92C8950A923196C895F02D9C
:1425DE00E99109900994112319F0000F1A95FBCF0895E1995D
:1425F200FECF1FBB0EBBE09A0DB30895AA92E199FECF1FBB31
:142606000EBB2DBBAFB6F894E29AE19AAFBE00271127A99022
:14261A0008950E94D712C22ED32E602F712FA884B9844C2D82
:14262E005D2D0BC0062F172F0E94F812E42FF52F00836F5F94
:142642007F4F4F5F5F4F2A2C3B2C822D932D0197A82EB92ED9
:14265600222061F7332051F70C94E0120E94D712C22ED32E2D
:14266A00602F712FA884B9844C2D5D2D0BC0E42FF52F20811E
:14267E00062F172F0E94FF126F5F7F4F4F5F5F4F2A2C3B2C65
:14269200822D932D0197A82EB92E222061F7332051F70C949B
:0226A600E01240
:00000001FF
